{
  "_format": "hh-sol-artifact-1",
  "contractName": "WavePortal",
  "sourceName": "contracts/WavePortal.sol",
  "abi": [
    {
      "inputs": [],
      "stateMutability": "payable",
      "type": "constructor"
    },
    {
      "anonymous": false,
      "inputs": [
        {
          "indexed": true,
          "internalType": "address",
          "name": "from",
          "type": "address"
        },
        {
          "indexed": false,
          "internalType": "uint256",
          "name": "timestamp",
          "type": "uint256"
        },
        {
          "indexed": false,
          "internalType": "string",
          "name": "message",
          "type": "string"
        }
      ],
      "name": "NewWave",
      "type": "event"
    },
    {
      "inputs": [],
      "name": "getTotalWaves",
      "outputs": [
        {
          "internalType": "uint256",
          "name": "",
          "type": "uint256"
        }
      ],
      "stateMutability": "view",
      "type": "function"
    },
    {
      "inputs": [],
      "name": "getWaves",
      "outputs": [
        {
          "components": [
            {
              "internalType": "address",
              "name": "waver",
              "type": "address"
            },
            {
              "internalType": "string",
              "name": "message",
              "type": "string"
            },
            {
              "internalType": "uint256",
              "name": "timestamp",
              "type": "uint256"
            }
          ],
          "internalType": "struct WavePortal.Wave[]",
          "name": "",
          "type": "tuple[]"
        }
      ],
      "stateMutability": "view",
      "type": "function"
    },
    {
      "inputs": [
        {
          "internalType": "address",
          "name": "",
          "type": "address"
        }
      ],
      "name": "lastWavedAt",
      "outputs": [
        {
          "internalType": "uint256",
          "name": "",
          "type": "uint256"
        }
      ],
      "stateMutability": "view",
      "type": "function"
    },
    {
      "inputs": [
        {
          "internalType": "string",
          "name": "_message",
          "type": "string"
        }
      ],
      "name": "wave",
      "outputs": [],
      "stateMutability": "nonpayable",
      "type": "function"
    }
  ],
  "bytecode": "0x60806040526200004f6040518060400160405280600c81526020017f48657920407465706578696300000000000000000000000000000000000000008152506200005560201b620006011760201c565b620001e9565b620000f5816040516024016200006c919062000162565b6040516020818303038152906040527f41304fac000000000000000000000000000000000000000000000000000000007bffffffffffffffffffffffffffffffffffffffffffffffffffffffff19166020820180517bffffffffffffffffffffffffffffffffffffffffffffffffffffffff8381831617835250505050620000f860201b60201c565b50565b60008151905060006a636f6e736f6c652e6c6f679050602083016000808483855afa5050505050565b60006200012e8262000186565b6200013a818562000191565b93506200014c818560208601620001a2565b6200015781620001d8565b840191505092915050565b600060208201905081810360008301526200017e818462000121565b905092915050565b600081519050919050565b600082825260208201905092915050565b60005b83811015620001c2578082015181840152602081019050620001a5565b83811115620001d2576000848401525b50505050565b6000601f19601f8301169050919050565b61117e80620001f96000396000f3fe608060405234801561001057600080fd5b506004361061004c5760003560e01c8063449d46c0146100515780639a2cdc081461006d578063a42a46631461008b578063a9d42f7e146100bb575b600080fd5b61006b60048036038101906100669190610944565b6100d9565b005b61007561048f565b6040516100829190610cb1565b60405180910390f35b6100a560048036038101906100a0919061091b565b610498565b6040516100b29190610cb1565b60405180910390f35b6100c36104b0565b6040516100d09190610bad565b60405180910390f35b42610384600360003373ffffffffffffffffffffffffffffffffffffffff1673ffffffffffffffffffffffffffffffffffffffff168152602001908152602001600020546101279190610dc3565b10610167576040517f08c379a000000000000000000000000000000000000000000000000000000000815260040161015e90610c51565b60405180910390fd5b42600360003373ffffffffffffffffffffffffffffffffffffffff1673ffffffffffffffffffffffffffffffffffffffff168152602001908152602001600020819055506000808154809291906101bd90610efa565b9190505550600260405180606001604052803373ffffffffffffffffffffffffffffffffffffffff16815260200183815260200142815250908060018154018082558091505060019003906000526020600020906003020160009091909190915060008201518160000160006101000a81548173ffffffffffffffffffffffffffffffffffffffff021916908373ffffffffffffffffffffffffffffffffffffffff16021790555060208201518160010190805190602001906102819291906107fb565b506040820151816002015550506000606460015442446102a19190610dc3565b6102ab9190610dc3565b6102b59190610f43565b90506102f66040518060400160405280601681526020017f52616e646f6d20232067656e6572617465643a202573000000000000000000008152508261069a565b603281101561043b5761033e6040518060400160405280600781526020017f257320776f6e210000000000000000000000000000000000000000000000000081525033610736565b6000655af3107a400090504781111561038c576040517f08c379a000000000000000000000000000000000000000000000000000000000815260040161038390610c71565b60405180910390fd5b60003373ffffffffffffffffffffffffffffffffffffffff16826040516103b290610b98565b60006040518083038185875af1925050503d80600081146103ef576040519150601f19603f3d011682016040523d82523d6000602084013e6103f4565b606091505b5050905080610438576040517f08c379a000000000000000000000000000000000000000000000000000000000815260040161042f90610c91565b60405180910390fd5b50505b3373ffffffffffffffffffffffffffffffffffffffff167f5f7e16dc676677766a70e9c5628aa6c54ddb8b6e5188e2ae1e1f17f1ffbea7164284604051610483929190610ccc565b60405180910390a25050565b60008054905090565b60036020528060005260406000206000915090505481565b60606002805480602002602001604051908101604052809291908181526020016000905b828210156105f857838290600052602060002090600302016040518060600160405290816000820160009054906101000a900473ffffffffffffffffffffffffffffffffffffffff1673ffffffffffffffffffffffffffffffffffffffff1673ffffffffffffffffffffffffffffffffffffffff16815260200160018201805461055d90610e97565b80601f016020809104026020016040519081016040528092919081815260200182805461058990610e97565b80156105d65780601f106105ab576101008083540402835291602001916105d6565b820191906000526020600020905b8154815290600101906020018083116105b957829003601f168201915b50505050508152602001600282015481525050815260200190600101906104d4565b50505050905090565b610697816040516024016106159190610bcf565b6040516020818303038152906040527f41304fac000000000000000000000000000000000000000000000000000000007bffffffffffffffffffffffffffffffffffffffffffffffffffffffff19166020820180517bffffffffffffffffffffffffffffffffffffffffffffffffffffffff83818316178352505050506107d2565b50565b61073282826040516024016106b0929190610c21565b6040516020818303038152906040527f9710a9d0000000000000000000000000000000000000000000000000000000007bffffffffffffffffffffffffffffffffffffffffffffffffffffffff19166020820180517bffffffffffffffffffffffffffffffffffffffffffffffffffffffff83818316178352505050506107d2565b5050565b6107ce828260405160240161074c929190610bf1565b6040516020818303038152906040527f319af333000000000000000000000000000000000000000000000000000000007bffffffffffffffffffffffffffffffffffffffffffffffffffffffff19166020820180517bffffffffffffffffffffffffffffffffffffffffffffffffffffffff83818316178352505050506107d2565b5050565b60008151905060006a636f6e736f6c652e6c6f679050602083016000808483855afa5050505050565b82805461080790610e97565b90600052602060002090601f0160209004810192826108295760008555610870565b82601f1061084257805160ff1916838001178555610870565b82800160010185558215610870579182015b8281111561086f578251825591602001919060010190610854565b5b50905061087d9190610881565b5090565b5b8082111561089a576000816000905550600101610882565b5090565b60006108b16108ac84610d21565b610cfc565b9050828152602081018484840111156108c957600080fd5b6108d4848285610e55565b509392505050565b6000813590506108eb81611131565b92915050565b600082601f83011261090257600080fd5b813561091284826020860161089e565b91505092915050565b60006020828403121561092d57600080fd5b600061093b848285016108dc565b91505092915050565b60006020828403121561095657600080fd5b600082013567ffffffffffffffff81111561097057600080fd5b61097c848285016108f1565b91505092915050565b60006109918383610b2a565b905092915050565b6109a281610e19565b82525050565b6109b181610e19565b82525050565b60006109c282610d62565b6109cc8185610d85565b9350836020820285016109de85610d52565b8060005b85811015610a1a57848403895281516109fb8582610985565b9450610a0683610d78565b925060208a019950506001810190506109e2565b50829750879550505050505092915050565b6000610a3782610d6d565b610a418185610da1565b9350610a51818560208601610e64565b610a5a81611030565b840191505092915050565b6000610a7082610d6d565b610a7a8185610db2565b9350610a8a818560208601610e64565b610a9381611030565b840191505092915050565b6000610aab602883610db2565b9150610ab682611041565b604082019050919050565b6000610ace603583610db2565b9150610ad982611090565b604082019050919050565b6000610af1600083610d96565b9150610afc826110df565b600082019050919050565b6000610b14602783610db2565b9150610b1f826110e2565b604082019050919050565b6000606083016000830151610b426000860182610999565b5060208301518482036020860152610b5a8282610a2c565b9150506040830151610b6f6040860182610b7a565b508091505092915050565b610b8381610e4b565b82525050565b610b9281610e4b565b82525050565b6000610ba382610ae4565b9150819050919050565b60006020820190508181036000830152610bc781846109b7565b905092915050565b60006020820190508181036000830152610be98184610a65565b905092915050565b60006040820190508181036000830152610c0b8185610a65565b9050610c1a60208301846109a8565b9392505050565b60006040820190508181036000830152610c3b8185610a65565b9050610c4a6020830184610b89565b9392505050565b60006020820190508181036000830152610c6a81610a9e565b9050919050565b60006020820190508181036000830152610c8a81610ac1565b9050919050565b60006020820190508181036000830152610caa81610b07565b9050919050565b6000602082019050610cc66000830184610b89565b92915050565b6000604082019050610ce16000830185610b89565b8181036020830152610cf38184610a65565b90509392505050565b6000610d06610d17565b9050610d128282610ec9565b919050565b6000604051905090565b600067ffffffffffffffff821115610d3c57610d3b611001565b5b610d4582611030565b9050602081019050919050565b6000819050602082019050919050565b600081519050919050565b600081519050919050565b6000602082019050919050565b600082825260208201905092915050565b600081905092915050565b600082825260208201905092915050565b600082825260208201905092915050565b6000610dce82610e4b565b9150610dd983610e4b565b9250827fffffffffffffffffffffffffffffffffffffffffffffffffffffffffffffffff03821115610e0e57610e0d610f74565b5b828201905092915050565b6000610e2482610e2b565b9050919050565b600073ffffffffffffffffffffffffffffffffffffffff82169050919050565b6000819050919050565b82818337600083830152505050565b60005b83811015610e82578082015181840152602081019050610e67565b83811115610e91576000848401525b50505050565b60006002820490506001821680610eaf57607f821691505b60208210811415610ec357610ec2610fd2565b5b50919050565b610ed282611030565b810181811067ffffffffffffffff82111715610ef157610ef0611001565b5b80604052505050565b6000610f0582610e4b565b91507fffffffffffffffffffffffffffffffffffffffffffffffffffffffffffffffff821415610f3857610f37610f74565b5b600182019050919050565b6000610f4e82610e4b565b9150610f5983610e4b565b925082610f6957610f68610fa3565b5b828206905092915050565b7f4e487b7100000000000000000000000000000000000000000000000000000000600052601160045260246000fd5b7f4e487b7100000000000000000000000000000000000000000000000000000000600052601260045260246000fd5b7f4e487b7100000000000000000000000000000000000000000000000000000000600052602260045260246000fd5b7f4e487b7100000000000000000000000000000000000000000000000000000000600052604160045260246000fd5b6000601f19601f8301169050919050565b7f506c656173652077616974203135206d696e7574657320666f7220746865206e60008201527f6578742077617665000000000000000000000000000000000000000000000000602082015250565b7f547279696e6720746f207769746864726177206d6f7265206d6f6e657920746860008201527f616e207468657920636f6e7472616374206861732e0000000000000000000000602082015250565b50565b7f4661696c656420746f2077697468647261772065746865722066726f6d20636f60008201527f6e74726163742e00000000000000000000000000000000000000000000000000602082015250565b61113a81610e19565b811461114557600080fd5b5056fea26469706673582212209582e0b2a45177d5db4c697956a6b21e7ab41fe329a8383840c67abc5c950f2b64736f6c63430008040033",
  "linkReferences": {},
  "deployedLinkReferences": {}
}