{
  "_format": "hh-sol-artifact-1",
  "contractName": "WavePortal",
  "sourceName": "contracts/WavePortal.sol",
  "abi": [
    {
      "inputs": [],
      "stateMutability": "nonpayable",
      "type": "constructor"
    },
    {
      "inputs": [],
      "name": "getTotalWaves",
      "outputs": [
        {
          "internalType": "uint256",
          "name": "",
          "type": "uint256"
        }
      ],
      "stateMutability": "view",
      "type": "function"
    },
    {
      "inputs": [],
      "name": "wave",
      "outputs": [],
      "stateMutability": "nonpayable",
      "type": "function"
    }
  ],
  "bytecode": "0x608060405234801561001057600080fd5b506100596040518060400160405280600c81526020017f486579204074657065786963000000000000000000000000000000000000000081525061005e60201b6100ec1760201c565b6101e1565b6100fa81604051602401610072919061015f565b6040516020818303038152906040527f41304fac000000000000000000000000000000000000000000000000000000007bffffffffffffffffffffffffffffffffffffffffffffffffffffffff19166020820180517bffffffffffffffffffffffffffffffffffffffffffffffffffffffff83818316178352505050506100fd60201b60201c565b50565b60008151905060006a636f6e736f6c652e6c6f679050602083016000808483855afa5050505050565b600061013182610181565b61013b818561018c565b935061014b81856020860161019d565b610154816101d0565b840191505092915050565b600060208201905081810360008301526101798184610126565b905092915050565b600081519050919050565b600082825260208201905092915050565b60005b838110156101bb5780820151818401526020810190506101a0565b838111156101ca576000848401525b50505050565b6000601f19601f8301169050919050565b61055a806101f06000396000f3fe608060405234801561001057600080fd5b50600436106100365760003560e01c80636fe15b441461003b5780639a2cdc0814610045575b600080fd5b610043610063565b005b61004d6100a1565b60405161005a91906103d0565b60405180910390f35b60008081548092919061007590610476565b919050555061009f6040518060600160405280602581526020016105006025913933600054610185565b565b60006100e46040518060400160405280601781526020017f5765206861766520256420746f74616c20776176657321000000000000000000815250600054610224565b600054905090565b610182816040516024016101009190610340565b6040516020818303038152906040527f41304fac000000000000000000000000000000000000000000000000000000007bffffffffffffffffffffffffffffffffffffffffffffffffffffffff19166020820180517bffffffffffffffffffffffffffffffffffffffffffffffffffffffff83818316178352505050506102c0565b50565b61021f83838360405160240161019d93929190610362565b6040516020818303038152906040527f07c81217000000000000000000000000000000000000000000000000000000007bffffffffffffffffffffffffffffffffffffffffffffffffffffffff19166020820180517bffffffffffffffffffffffffffffffffffffffffffffffffffffffff83818316178352505050506102c0565b505050565b6102bc828260405160240161023a9291906103a0565b6040516020818303038152906040527f9710a9d0000000000000000000000000000000000000000000000000000000007bffffffffffffffffffffffffffffffffffffffffffffffffffffffff19166020820180517bffffffffffffffffffffffffffffffffffffffffffffffffffffffff83818316178352505050506102c0565b5050565b60008151905060006a636f6e736f6c652e6c6f679050602083016000808483855afa5050505050565b6102f281610407565b82525050565b6000610303826103eb565b61030d81856103f6565b935061031d818560208601610443565b610326816104ee565b840191505092915050565b61033a81610439565b82525050565b6000602082019050818103600083015261035a81846102f8565b905092915050565b6000606082019050818103600083015261037c81866102f8565b905061038b60208301856102e9565b6103986040830184610331565b949350505050565b600060408201905081810360008301526103ba81856102f8565b90506103c96020830184610331565b9392505050565b60006020820190506103e56000830184610331565b92915050565b600081519050919050565b600082825260208201905092915050565b600061041282610419565b9050919050565b600073ffffffffffffffffffffffffffffffffffffffff82169050919050565b6000819050919050565b60005b83811015610461578082015181840152602081019050610446565b83811115610470576000848401525b50505050565b600061048182610439565b91507fffffffffffffffffffffffffffffffffffffffffffffffffffffffffffffffff8214156104b4576104b36104bf565b5b600182019050919050565b7f4e487b7100000000000000000000000000000000000000000000000000000000600052601160045260246000fd5b6000601f19601f830116905091905056fe25732068617320776176656420616e64206e6f7720746f74616c5761766573206973202564a264697066735822122067130b460458387c454bc8748f3d447c6c7ffcd0981c0aafa32678805d8befbb64736f6c63430008040033",
  "linkReferences": {},
  "deployedLinkReferences": {}
}